:100F30004C69676874206F6E204E756D204C6F632E
:100F40006B204C4544210A004C69676874206F6629
:100F500066204E756D204C6F636B204C4544210A12
:100F6000007A7A007374617274202E2E2E0A001299
:100F7000011001FF000008861A23756302000200B9
:100F8000010902270001010080F00904000003FFAD
:100F9000010200070582022000000705020220006E
:100FA00000070581030800013000C300FFEC9FEC3F
:100FB000FFECDFECDFECDFEC9FEC9FEC9FEC9FECB9
:020FC000FFEC44
:1010A00041012400410126004101290041012C0099
:1010B00047013500E1000000000801230001240081
:0C10C00001270001260001680001250046
:10113800E4F5E253E27F43E229F5E353E2BF53D1FA
:08114800FB75D18043D10122A7
:1000320043E10443E10243E10143D81FD2EAD2AFD4
:01004200229B
:1010F40075EF0075EEA075E50075E40875EBCC7529
:10110400D41275D21275ED0075EC0075EA4075DCE9
:021114000222B5
:10104E00900143120D1400000000900003120BF7E4
:10105E00900143F0900002120BF7900144F09000C3
:10106E0001120BF7900145F0120BDE900146F0C213
:10107E00EC900143E0F8A3E0F9A3E0FAA3E0FB7FD4
:10108E00807E847D1E7C00120C76EFF404F5C2D2B5
:01109E00EC65
:01109F00222E
:0300430002005662
:0D005600C0E0C0F0C083C082C0D075D008EB
:1000630020D90302071CE5D9543F70030206E92493
:10007300FE602424E2700302067324F06038240E29
:10008300600302071A75D500E5D454FC4402F5D485
:100093007825760002071A20DE0302071A90014131
:1000A300E5DBF07826A6DB78687600E5D454F344E4
:1000B30008F5D402071A900141E5DBF0E06408601B
:1000C3000302063B900006E0FF900122E4F0A3EF59
:1000D300F0900002E0900126F0900007E0700FD34B
:1000E300900123E0947F900122E094004009900165
:1000F30022E4F0A3747FF0900141E4F0900001E06A
:10010300900125F0900000E05460700302044B90CE
:100113000125E024C0604A24A670030201A024F64E
:10012300604824E4600302041490012CE0FF24A837
:10013300F9E4340FFA90013E74FFF0A3EAF0A3E967
:10014300F09001417402F0C3EF941874809480908E
:10015300012C5007E02402F002041A7418F0020480
:100163001A9001417409F002041A900126E0244117
:10017300602224E0601024E0601524606003020420
:100183001A5390EF80034390105390DF02041A43F5
:10019300901080035390EF43902002041A900002C2
:1001A300E0FF900127F0900003E0900128F0EF6456
:1001B30012600302041AE06413600302041A90003D
:1001C30004E0FF90012AF0900005E090012BF0EF8E
:1001D300247F60561470030202811470030202EA42
:1001E30024FC70030203EB2407600302040990015B
:1001F3002BE02427601D2443600302040990013887
:10020300E4F0900137F0900136F0900135746EF010
:10021300020409900138E4F0900137F090013604AC
:10022300F0900135742CF002040990012BE0244E68
:10023300602324D9603024756003020409900138D7
:10024300E4F0900137F09001367402F090013574B8
:1002530058F0020409900138E4F0900137F090015E
:100263003674020203E2900138E4F0900137F09013
:1002730001367409F09001357460F00204099001AD
:100283002BE0244E602024E6603424F36048247578
:100293006003020409900138E4F0900137F0900103
:1002A300367412020335900138E4F0900137F09070
:1002B30001367425F09001357480F0020409900131
:1002C30038E4F0900137F09001367438F09001353E
:1002D3007440F0020409900138E4F0900137F09083
:1002E3000136744B02040390012BE0120D450316F3
:1002F30064032795033F980350CC0362D10374E64C
:100303000386E90398F303A9F403BBF603D2F800C9
:10031300000409900138E4F0900137F0900136743D
:1003230096020403900138E4F0900137F09001360F
:1003330074DAF090013574C0F0020409900138E4D6
:10034300F0900137F090013674E102040390013814
:10035300E4F090013704F090013674C20204039074
:100363000138E4F090013704F090013674F402048C
:1003730003900138E4F09001377403F09001367470
:1003830084807D900138E4F09001377403F090018C
:100393003674E8806B900138E4F09001377407F00D
:1003A30090013604805A900138E4F09001377407C5
:1003B300F090013674D08048900138E4F090013712
:1003C3007409F09001367427F090013574C0F090F1
:1003D3000138E4F0900137740BF09001367471F03A
:1003E30090013574B0F0801E90012BE0240D70163F
:1003F300900138E4F0900137740EF09001367410D8
:10040300F0900135E4F07B017A01793512104E80CA
:100413000690014174FFF0900141E0FF7E00D3900C
:100423000123E09F900122E09E4005EEF0A3EFF050
:10043300900122E0FEA3E0FFC39408EE9400400580
:100443007F080204E90204E9900125E0B40B0040AF
:100453000302063990045EF8282873020616020583
:100463006202063902059A02063902052402047F54
:10047300020639020534020557020641900003E0E3
:1004830024FE601904702C90013E74FFF0A3740FD6
:10049300F0A3746FF09001417412F0801C90013E40
:1004A30074FFF0A3740FF0A37481F09001417427DB
:1004B300F0800690014174FFF0900141E0FF7E005F
:1004C300D3900123E09F900122E09E4005EEF0A32C
:1004D300EFF0900122E0FEA3E0FFC39408EE940046
:1004E30040047F088000900141EFF07E0078007C9B
:1004F300007D0190013EE0FBA3E0FAA3E0F9120BBB
:10050300B8900141E0FF7E00C3900123E09FF0908B
:100513000122E09EF090013FEE8FF0120C240206C0
:1005230041900002E0FF900122E4F0A3EFF0020605
:10053300419000E0E0900000F0C3900123E09401BB
:10054300900122E09400500302064190014174019E
:10055300F0020641900002E09000E0F002064190B4
:100563000000E0541F6402702B900004E024FE603E
:100573001224816014147046E5D454BC4402F5D4AB
:1005830002064153D473020641E5D254BC4402F53A
:10059300D202064102063B900000E0541FFD7C009E
:1005A300701E900003E0FE900002E0FBEB64014E3E
:1005B300700C900F889330E503020641807A8078AF
:1005C300ED64024C704B900003E0FE900002E0FDEE
:1005D300ED4E703B900005E0FE900004E0FDEDFF62
:1005E300EE702AEF24FE60112481601714701EE55B
:1005F300D454BF4403F5D48045E5D4547F440CF56B
:10060300D4803BE5D254BF4403F5D28031802980A6
:10061300278025900000E4F0A3F0900122E0FEA3E0
:10062300E0FFC39402EE940090014140057402F090
:10063300800CEFF08008800090014174FFF090017E
:1006430041E0FF7E00F4700C90012574FFF075DC2F
:10065300CF02071AD3EF9408EE6480948050089079
:100663000141E0F5DD800375DD0075DCC002071A8A
:10067300900125E024FB6057147063900122E0FE93
:10068300A3E0FFC39408EE940040047F0880009029
:100693000141EFF07E0078007C007D0190013EE097
:1006A300FBA3E0FAA3E0F9120BB8900141E0FFFDD0
:1006B3007C00C3900123E09DF0900122E09CF09028
:1006C300013FEC8DF0120C248FDD63DC40804890F9
:1006D3000122A3E0FFE5E354804FF5E3800375DDDA
:1006E3000075DC028031900141E5DBF0900125E0EB
:1006F3006409701D900000E060087BFF7A0F793079
:10070300800C900000E070097BFF7A0F7948120794
:10071300EE75DD0075DC00C2D930D82775DC0275B3
:10072300D21275D41275E300C2DAC2D9C2D87823C3
:100733007600087600782776001876009000E0E4CB
:10074300F018F630DA2CC2DAE5DA30E2287BFF7AE9
:100753000F79611207EEE5A220E7FB75A15575A19C
:10076300AA75A9C143870275A15575A1AA75A900E8
:05077300800375D8FFB2
:0B077800D0D0D082D083D0F0D0E0328F
:03005300020003A5
:10000300C0E0C0D075D000C00030C01C7823E60625
:100013002428F8A6C17827067823E6C39440748081
:0F002300948040027600C2C0D000D0D0D0E0322E
:100D9D00E490016CF0A3F0A3F07593FF5390EF5323
:100DAD0090DF12117E7F057E00121150120E9712E8
:100DBD0011907BFF7A0F79641207EE121138121021
:100DCD00F4120032E4F5DDF5D3F5D59000E0E060E6
:100DDD00FA7826E6601B7868E6062408F582E43486
:100DED0000F583E0FF1211AE782616E6700353D49A
:100DFD00F37827E6600690016DE004F07825E67043
:100E0D00CA7827E690016BF0E0FFD39400748094CC
:100E1D008040B8D3EF941F74809480500C90016D76
:100E2D00E094647480948040A2E490016DF0900190
:100E3D006BE0FF7824E62FFFE433FED3EF9440EE12
:100E4D00648094804004744096F090016BE0FFC381
:100E5D007827E69FF67E007824E62428F9E4FAFB4D
:100E6D0078487C007D01120BB890016BE0FF78246F
:100E7D0026F6E6C39440748094804002E4F68FD544
:0A0E8D0053D4FC78257601020DD83D
:10117E0075A15575A1AAE5B954F84407F5B9E4F57A
:02118E00A1229C
:10111600EF4E601D05A105A105A105A105A105A12B
:1011260005A105A105A105A105A1EF1F70E21E807D
:02113600DF22B6
:10115000AD07AC06ED4C600E7FE87E03121116ED74
:071160001D70F11C80EE225E
:04004E0043C6102273
:100E9700C29FD29EC29DC2CDC2CC43878090016FB4
:100EA700120D140000015BE47B0AFAF9F890016F58
:100EB700E0FCA3E0FDA3E0FEA3E0FF120C769001A7
:100EC70073EBF090016FE0FCA3E0FDA3E0FEA3E06D
:100ED700FFE47B0AFAF9F8120C7690016F120D08FD
:100EE700900173E0C3940574809480401F90016F54
:100EF700E0FCA3E0FDA3E0FEA3E02401FFE43EFE47
:100F0700E43DFDE43CFC90016F120D08E589540FA8
:100F17004420F58943C9A090016FA3A3A3E0F4047B
:080F2700F58DD28ED299D29C07
:010F2F00229F
:080046003098FDC298AF992229
:08119E008F993099FDC29922DE
:0E119000C2C7D2C5D2C475C2DED2ECD2AF2225
:0811A60030C0FDC2C0AFC12240
:0811AE008FC130C1FDC2C12256
:1011670075A15575A1AAEF600543B101800353B17D
:07117700FEE4F5A1F5FF22E3
:0311B6008FFF2286
:03000000020FC22A
:0C0FC200787FE4F6D8FD75816802100904
:100AE800E709F608DFFA8046E709F208DFFA803EF0
:100AF80088828C83E709F0A3DFFA8032E309F608DD
:100B0800DFFA8078E309F208DFFA807088828C8344
:100B1800E309F0A3DFFA806489828A83E0A3F608F8
:100B2800DFFA805889828A83E0A3F208DFFA804CD2
:100B380080D280FA80C680D4806980F280338010A9
:100B480080A680EA809A80A880DA80E280CA803312
:100B580089828A83ECFAE493A3C8C582C8CCC5838A
:100B6800CCF0A3C8C582C8CCC583CCDFE9DEE7805A
:100B78000D89828A83E493A3F608DFF9ECFAA9F0D9
:100B8800EDFB2289828A83ECFAE0A3C8C582C8CC2F
:100B9800C583CCF0A3C8C582C8CCC583CCDFEADE48
:100BA800E880DB89828A83E493A3F208DFF980CCAA
:100BB80088F0EF60010E4E60C388F0ED2402B404A3
:100BC8000050B9F582EB2402B4040050AF2323454A
:060BD8008223900B38732C
:100BDE00BB010689828A83E0225002E722BBFE0215
:090BEE00E32289828A83E4932248
:100BF700BB010CE58229F582E5833AF583E02250B3
:100C070006E92582F8E622BBFE06E92582F8E222FC
:0D0C1700E58229F582E5833AF583E4932216
:100C2400C5F0F8A3E028F0C5F0F8E582158270025B
:060C34001583E038F022F8
:100C3A0075F008758200EF2FFFEE33FECD33CDCC71
:100C4A0033CCC58233C5829BED9AEC99E5829840F4
:100C5A000CF582EE9BFEED9AFDEC99FC0FD5F0D6D1
:100C6A00E4CEFBE4CDFAE4CCF9A88222B800C1B9FB
:100C7A000059BA002DEC8BF084CFCECDFCE5F0CB39
:100C8A00F97818EF2FFFEE33FEED33FDEC33FCEB72
:100C9A0033FB10D703994004EB99FB0FD8E5E4F92D
:100CAA00FA227818EF2FFFEE33FEED33FDEC33FC1A
:100CBA00C933C910D7059BE99A4007EC9BFCE99A0E
:100CCA00F90FD8E0E4C9FAE4CCFB2275F010EF2F53
:100CDA00FFEE33FEED33FDCC33CCC833C810D70753
:100CEA009BEC9AE899400AED9BFDEC9AFCE899F88E
:0E0CFA000FD5F0DAE4CDFBE4CCFAE4C8F92221
:0C0D0800ECF0A3EDF0A3EEF0A3EFF0225E
:100D1400A8828583F0D083D082120D2B120D2B1262
:100D24000D2B120D2BE473E493A3C583C5F0C58387
:100D3400C8C582C8F0A3C583C5F0C583C8C582C829
:010D4400228C
:100D4500D083D082F8E4937012740193700DA3A33D
:100D550093F8740193F5828883E473740293686051
:060D6500EFA3A3A380DF51
:10078300E5152472F582E43401F583E00515229022
:10079300016F301003900172E475F001120D7D02B8
:1007A3000BDE2009E97F2ED2098018EF540F249025
:1007B300D43440D4FF300D0BEF24BFB41A005003E0
:1007C3002461FFE516600215160519E51970020587
:1007D3001830100E90016FE475F001120D7DEF02D9
:1007E3000D6B0210CD7403D2108003E4C210F51513
:1007F30090016F120D94E4F516F518F519E51660DE
:10080300077F201207C680F57517FFC20AC209C207
:100813000BC20CC20EC20FC211120792FF700D3031
:1008230010057F001207D7AF19AE1822B4255FC297
:10083300D5C20D120792FF24D0B40A00501A75F0E6
:100843000A781630D50508B6FF0106C6A426F62099
:10085300D5047002D20C80D924CFB41A00EF50040F
:10086300C2E5D20D0209D8D20A80C6D20980C0D20D
:100873000B80BCD2D580BAD20E80B47F201207C6BB
:10088300200B077401B5160040F1120783FF12070E
:10089300C6020800D211D20F8095120783FB1207FC
:1008A30083FA120783F94A4B700679A97A0A7BFF08
:1008B300200B2EE516602A7E008E82758300120BB4
:1008C300F760060EEE651770F0C2D5EBC0E0EAC024
:1008D300E0E9C0E0EE120A1FD0E0F9D0E0FAD0E080
:1008E300FB120BDEFF60AAEBC0E0EAC0E0E9C0E068
:1008F3001207C6D0E02401F9D0E03400FAD0E0FBBF
:10090300E5170460DCD517D980877BFF7A0A791B4A
:10091300D20B809C791080027908C20FC211800823
:10092300D2D5790A8004790AC2D5E517047002F595
:1009330017E4FAFDFEFF120783FC7B08200A13125B
:100943000783FD7B1030090A120783FE120783FF1A
:100953007B20EC3382D592D55013C3E43009069F34
:10096300FFE49EFEE4200A039DFDE49CFCE4CBF837
:10097300C20AEC700CCFCECDCCE824F8F870F3802B
:1009830017C3EF33FFEE33FEED33FDEC33FCEB33F4
:10099300FB994002FB0FD8E9EB300A05F8D0E0C41D
:1009A30048B20AC0E00AEC4D4E4F78207B0070C27B
:1009B300EAB5170040BCC0E0120A21D0F0D0E02015
:1009C3000A04C4C0E0C4B20AC0F01207AFD0F0D525
:1009D300F0EB020800120D45089D53091758086EE5
:1009E3004C086A42091B4F092344092349088343DE
:0809F300092955090D46090D03
:1009FB0045090D470AC95008722D08762E08992B08
:100A0B00087A230897200AB22A0832480000089176
:100A1B003F3F3F00790AA2D5200C14300E09B910C4
:100A2B00020404B9080104A2D5200F0250010420CE
:100A3B000B68920BB516005034C0E07F20300C19B8
:100A4B007F30A20B720F720E500F120A78C20BC2BC
:100A5B000FC20EC2117F30800F300E03E9C0E012BF
:100A6B0007C6300E03D0E0F9D0E0B516CC300E1728
:100A7B007F30B9100C1207C67F58300D077F788076
:100A8B0003B908031207C6300B057F2D0207C67F7B
:100A9B00202011F87F2B200FF322920B80CF286E92
:100AAB00756C6C2900D20A120783300AF8C20A78D7
:100ABB001630D50108F60208322D5043495812075B
:100ACB00832403B405004001E4900AC4931207B7D2
:0D0ADB00743A1207B7D20C75160402091701
:100FCE00020D9DE493A3F8E493A34003F68001F28F
:100FDE0008DFF48029E493A3F85407240CC8C33324
:100FEE00C4540F4420C8834004F456800146F6DFF3
:100FFE00E4800B01020408102040809010A0E47ED3
:10100E00019360BCA3FF543F30E509541FFEE493E7
:10101E00A360010ECF54C025E060A840B8E493A3AE
:10102E00FAE493A3F8E493A3C8C582C8CAC583CAD9
:10103E00F0A3C8C582C8CAC583CADFE9DEE780BE91
:0110CC000023
:100D6B00BB010689828A83F0225002F722BBFE0167
:020D7B00F32261
:100D7D00F8E0FBA3A3E0F925F0F0E58215827002FF
:070D8D001583E0FA38F022A3
:090D9400EBF0A3EAF0A3E9F02260
:1010CD00EFB40A07740D1210D8740A309811A8994C
:1010DD00B8130CC2983098FDA899C298B811F63083
:0710ED0099FDC299F599225B
:00000001FF
